:020000040800F2
:1000000028080020A9010008CF320008E12F0008CD
:10001000CD32000861150008B53600080000000068
:100020000000000000000000000000006133000834
:100030009515000800000000D13200086333000865
:10004000C3010008C3010008C3010008C301000880
:10005000C3010008C3010008C3010008C301000870
:10006000C3010008C3010008C3010008C301000860
:10007000C3010008C3010008C3010008C301000850
:10008000C3010008C3010008C3010008C301000840
:10009000C3010008C3010008C3010008C301000830
:1000A000C3010008C3010008C3010008C301000820
:1000B000C3010008C3010008E1330008C3010008C0
:1000C000C3010008C3010008C3010008C301000800
:1000D000C30100089D360008C3010008A9360008C6
:1000E000C3010008C3010008C301000800F002F8C2
:1000F00000F04AF80AA090E8000C82448344AAF178
:100100000107DA4501D100F03FF8AFF2090EBAE875
:100110000F0013F0010F18BFFB1A43F0010318473B
:100120007846000098460000103A24BF78C878C18D
:10013000FAD8520724BF30C830C144BF04680C60ED
:10014000704700000023002400250026103A28BF35
:1001500078C1FBD8520728BF30C148BF0B60704739
:10016000662904F0A582642900F08E800020704783
:100170001FB500F013FC04000020002103F0D2FFA3
:10018000E0601FBD10B510BD00F008FD1146FFF77F
:10019000EFFF03F043FD00F026FD03B4FFF7F2FF8D
:1001A00003BC03F0B3FA0000094880470948004740
:1001B000FEE7FEE7FEE7FEE7FEE7FEE7FEE7FEE717
:1001C000FEE7FEE704480549054A064B7047000074
:1001D000DF330008ED000008280200202808002076
:1001E00028040020280400207047B2F120030AD51B
:1001F000C2F1200320FA02F001FA03F321FA02F11E
:1002000040EA0300704721FA03F04FF00001704705
:100210000FB41CB5074B06AA7B44694600900598AD
:1002200000F0A3FB0020694600F0B2FB1CBC5DF8A7
:1002300014FB00007507000070B50446856900686E
:10024000C10601D5302600E02026C00707D070BDCA
:10025000D4E9012130469047206A401C20626D1E7F
:10026000F6D570BD70B5044685690078C00707D122
:1002700070BDD4E9012120209047206A401C2062F3
:100280006D1EF6D570BD00002DE9F0410646002434
:1002900010687529314616A510D0AFF300800028EC
:1002A00002DA404213A507E031688A0701D512A59A
:1002B00002E0490704D511A5012401E0AFF3008055
:1002C00000210A2206F1240709E0B0FBF2FCB0FB92
:1002D000F2F302FB1C00303078541846491C002809
:1002E000F3D123462A463046BDE8F04100F0CFB8AE
:1002F000000000002D0000002B0000002000000086
:100300002DE9F05F894604464FF0000ADFF824B17A
:10031000FB44C0F820A02046E168884700287DD033
:10032000252806D0D4E901219047206A401C20628C
:10033000F1E700255F462046E16888472028064609
:1003400007DB312E05D2B81910F8200C08B105438F
:10035000F1E7A80701D525F00405C4F81CA0002783
:10036000C4F818A02A2E09D0304603F0C8F938B3D3
:1003700004EB8708303EC8F8186019E059F8041BF0
:10038000204604EB87029161E1688847012F064609
:1003900018D1E069002820DA25F020051DE0D8F802
:1003A000180000EB800006EB40003038C8F8180059
:1003B0002046E1688847064603F0A1F90028EED1FF
:1003C000012F0AD02E2E08D12046E16888477F1CD5
:1003D0000646022F45F02005C4DBA069002803DA99
:1003E000404245F00105A061E80701D025F0100565
:1003F000A6B1A6F14100192802D8203645F40065BF
:100400004A463146204625604D46FFF7A9FE60B1B9
:10041000012807D0ED1D25F0070000E007E000F1FE
:10042000080978E705F1040975E730467AE7206A9C
:10043000BDE8F09FDC4300004FF0000200B513461A
:1004400094469646203922BFA0E80C50A0E80C50F4
:10045000B1F12001BFF4F7AF090728BFA0E80C50A5
:1004600048BF0CC05DF804EB890028BF40F8042B9E
:1004700008BF704748BF20F8022B11F0804F18BF0B
:1004800000F8012B704770477047704770472DE99F
:10049000F0470D4699469246044600F1240801684B
:1004A000880604D5E06921F01001216000E00120F8
:1004B000A84201DD471B00E00027A1697A1902EB81
:1004C0000900081AA0612078C00602D42046FFF770
:1004D000B3FE002608E0D4E901211AF8060090478F
:1004E000206A401C761C20624E45F4DB2078C00652
:1004F0000AD52046FFF7A0FE06E0D4E9012130200E
:100500009047206A401C2062381EA7F10107F4DCE6
:1005100007E0D4E9012118F805009047206A401C43
:100520002062281EA5F10105F3DC2046FFF79AFEA4
:100530002078000602D50220BDE8F0870120FBE705
:1005400070472DE9FF4F0C461E464FF0FF378BB02A
:10055000D2E90001DDF860800A908A46C1F30A55AD
:1005600005B93D46002108464FF00000BAF1000FE2
:1005700000F4400005DA00EB80004FF4400101EA8E
:1005800050004FEA9059B9F1010F00DDB9460A98C1
:1005900050EA4A000ED044F61050A5F2FF3545430C
:1005A0002F14B8F1000F1ED07542291E1EDDC9F1AF
:1005B00000021CE0B8F1010F4FF0000001D0302123
:1005C00003E0F24305E02154401CB042FBDB30461F
:1005D0000022002121540B99C1F80880C1E90020B4
:1005E0000FB0BDE8F08FBD1B6D1CDEE74A4600DA98
:1005F000694206A800F05CFA06AB93E8070003AB7B
:1006000083E8070050460A9900F036FB8DE80700A2
:10061000A0F500501F3800900398002D0ADD42F22B
:100620001F014A460844002303A90390684600F0CE
:100630009FFD09E0A0F500504A461F38002303A99A
:100640000390684600F0A9FD8DE807000004000C47
:1006500003D04FF0FF30410800E01046B8F1000F22
:1006600003D00022009215461EE0751E05D400F04E
:1006700099F9303262556D1EF9D5B346012208430F
:1006800002D000227F1C04E02078302801D1002213
:100690007F1E002A099784D01DE0112D07DA00F093
:1006A00081F9303262556D1C50EA0102F5D10843E0
:1006B00002D00098C8B10EE00021681E05E0235C5E
:1006C000625C63542254401E491C8142F7DBAB46F6
:1006D000A81B401E0990002004F80B000B98099AF3
:1006E000C0F80880C0E9002B7AE711264FF0000817
:1006F00057E72DE9F04F88460446D21D22F0070146
:1007000091B0D1E90001CDE90A0102F0D4FF02461F
:100710000B98C00F01D02D2007E02068810701D57C
:100720002B2002E0202101EAC000032A099001D019
:10073000072A05DB03464146204600F079F90BE124
:100740002078800601D5E06900E00620B8F1650F49
:10075000814606D0B8F1660F18D0B8F1670F70D196
:1007600031E00020B9F1110F009001DB112301E00D
:1007700009F101030AAA01A90CA8FFF7E2FEDDE9CD
:100780000C70002609F10105834647E001204B4625
:1007900000904FF000470AAA01A90CA8FFF7D1FE6C
:1007A000DDE90DB00C995D46002610B909F1010094
:1007B0000D18B9EB050003D4C0F1FF3609F10105AE
:1007C000A5EB09002BE0B9F1010F01DA4FF00109A7
:1007D0000020B9F1110F0090484601DD112300E01F
:1007E00003460AAA01A90CA8FFF7ABFEDDE90C70CD
:1007F0004D4600268346207800070AD4AB4500DA30
:100800005D4601A8012D04DD411911F8011C3029B4
:1008100007D04F4502DA17F1040F04DA01208246AF
:100820000FE06D1EEEE7002F02DCED1B3E4403E0FF
:10083000781CA84200DD7D1CB81B00F1010A4FF0B6
:1008400000472078000703D4AA4501DB4FF0FF3AA8
:100850000021B7F1004F0DF143088DF8431024D06B
:1008600002202B23002F01DA7F422D230A21021EB2
:10087000A0F1010000DC5FB197FBF1FC97FBF1F206
:1008800001FB1C7C17460CF1300C08F801CDEEE79B
:10089000A8F1010003702188090501D5452100E078
:1008A0006521A0F1010800F8011C09980FA9A1EB2E
:1008B0000807FF1D00B10120411901EBEA70A16991
:1008C0003844081A401EA0612078C00602D4204691
:1008D000FFF7B2FC099828B1D4E901219047206ABA
:1008E000401C20622078C00622D52046FFF7A4FCD9
:1008F0001EE0002E04DBB34502DD01A8805D00E0B0
:100900003020D4E901219047206A401C2062761CE7
:10091000AAF101005FEA000A0AD100F03FF8C068BE
:100920000168405CD4E901219047206A401C2062A4
:10093000281EA5F10105DCDC07E0D4E9012118F847
:10094000010B9047206A401C2062381EA7F1010766
:10095000F3DC2046FFF786FC032011B041E60000DF
:1009600001694A1C02610878704700B58FB0CDE973
:1009700001310021059105497944CDE90310114663
:100980006846FFF7BDFC0FB000BD0000E5FFFFFFAC
:100990000A6802F8010B0A607047000000487047BF
:1009A000E801002030B5B0F10A024FEA900E71F173
:1009B00000034EEA817EB0EB0E0061EB91014FEA3D
:1009C000101E4EEA017E10EB0E0041EB11114FEAB2
:1009D000102E4EEA016E10EB0E0041EB11214FEA92
:1009E000104E4EEA014E10EB0E0041EB1141401843
:1009F00041F100014FEAD00040EA41704FEAD101D5
:100A000010EB80054FEA810444EA907444EB010442
:100A10006D1944EB0404521BA3414FF0000348BF7F
:100A20000A3200D530BD401C41F1000130BD00004C
:100A30002DE9F0411F46044603260168072A01F408
:100A4000006004DB08B116A505E016A503E008B1B7
:100A500015A500E015A521F010002060A069C01EBA
:100A6000A0610FB1401EA0612046FFF7E5FB4FB12A
:100A7000D4E9012138469047206A401C2062C01CFE
:100A8000206206E0206AFAE7D4E9012115F8010B9B
:100A90009047761EF8D22046FFF7E4FBBDE8F081D0
:100AA0004E414E006E616E00494E4600696E660012
:100AB0002DE9F047814616468AB0354878440DC87E
:100AC0008DE80D0032487844801C03AC0DC884E8E2
:100AD0000D0041F69B300844372190FBF1F290FB6A
:100AE000F1F5A5F1800501FB12041B3C02D564421F
:100AF000012000E00020DFF898A080460027FA449B
:100B0000AAF1BE0A0EE0E0070AD03246684607EBBB
:100B1000470101230AEB810100F03FFB8DE807004C
:100B200064107F1C002CEED1194F7F44AE3F19E0BA
:100B3000E80715D007EB04100DF1180A90E80E0035
:100B40008AE80E00C068F04201D198190890324638
:100B5000012306A903A800F020FB03AB83E80700EC
:100B60006D10641C002DE3D14FF00103324669463D
:100B7000B8F1000F03A802D000F0FAFA01E000F08B
:100B80000CFBC9E90001C9F808200AB0BDE8F087EC
:100B9000C03C000000487047C80100207546FFF7C0
:100BA000F9FFAE4605006946534620F0070085462A
:100BB00018B020B5FFF706FBBDE820404FF0000657
:100BC0004FF000074FF000084FF0000B21F0070135
:100BD000AC46ACE8C009ACE8C009ACE8C009ACE878
:100BE000C0098D46704710B50446AFF3008020461B
:100BF000BDE81040FFF7D1BA4FF0013C50F8042B8C
:100C000051F8043B9A4221D1A2EB0C03934313EA1F
:100C1000CC1317D150F8042B51F8043B9A4215D14C
:100C2000A2EB0C03934313EACC130BD150F8042B23
:100C300051F8043B9A4209D1A2EB0C03934313EA07
:100C4000CC13DBD04FF00000704700BFD01A01BAC0
:100C5000B1FA81F101F0180122FA01F0CB40C1F1A3
:100C60002001DBB2C0B2C01A2CFA01F3D11A9143B1
:100C700011EAC311E6D170475FEA400C08BF91F05A
:100C8000000F4FEA8C234FEAC12243EA51514FEA49
:100C90001C5018BF00F5F0404FEA300018BF41F07B
:100CA00000415FEA6C5C00F02980BCF1FF3F08BFA7
:100CB00040F080407047130C06BF12044FF0100C38
:100CC0004FF0000C130E04BF12020CF1080C130FAE
:100CD00004BF12010CF1040C930F04BF92000CF13D
:100CE000020CD30F04BF52000CF1010C11464FF05F
:100CF0000002A0F11F00A0EB0C00704711F0004FA4
:100D000008BF704731F000413FF4D5AF0B0C06BF70
:100D100009044FF0100C4FF0000C0B0E04BF090239
:100D20000CF1080C0B0F04BF09010CF1040C8B0F24
:100D300004BF89000CF1020CCB0F04BF49000CF179
:100D4000010CCCF12003A0EB0C0022FA03F302FA11
:100D50000CF241EA030100F10100704720F07F4CE2
:100D600080EA030023F07F47ACEB070303F57C53D5
:100D700000F0004003F1FF032DE980494FEA154BD5
:100D800009B44FEA144325EA0B4E24EA03480FF254
:100D9000042606EB132749083E785FEA320203FB7C
:100DA0000667C7F5000707FB06F64FEA54374FEA18
:100DB000D64606F1020607FB066CCCF1005C4FEA52
:100DC0001C472CEA074C07FB06F40CFB06F504EB6A
:100DD00015464FEA961634BF00204FF000404FEA08
:100DE000D13706FB07FC4FEA1C4C0CFB0BF7D21B60
:100DF00003FB0CF761EB07010CFB0EF7B0EB0740B0
:100E000072EB17420CFB08F734BFA2EB0742B2EBC0
:100E1000074261EB17414FEA0C444FEA910706FB8A
:100E200007FC4FEA1C4C0CFB0BF7B0EBC74072EB16
:100E3000573203FB0CF734BFA2EBC742B2EBC742F9
:100E400061EB57310CFB0EF7B0EBC70072EB57723A
:100E50000CFB08F734BFA2EBC702B2EBC70261EB91
:100E60005771039F4FEA816141EA921104EBCC0470
:100E70004FEAD1374FEA826206FB07FC42EA901242
:100E80004FEA80604FEA1C4C0CFB0BF7D21B03FBB4
:100E90000CF761EB07010CFB0EF7B0EB074072EBB0
:100EA00017420CFB08F734BFA2EB0742B2EB074234
:100EB00061EB17414FEA8C554FEA910704EB9C24F4
:100EC00006FB07FC4FEA1C4C0CFB0BF7B0EBC740D2
:100ED00072EB573203FB0CF734BFA2EBC742B2EB05
:100EE000C74261EB57310CFB0EF7B0EBC70072EB5A
:100EF00057720CFB08F734BFA2EBC702B2EBC70274
:100F000061EB577115EB4C254FEA816141EA921173
:100F10004FEA82624FEAD13742EA901206FB07FCA1
:100F200044F100044FEA80604FEA1C4C0CFB0BF7C5
:100F3000D21B03FB0CF761EB07010CFB0EF7B0EBC8
:100F4000074072EB17420CFB08F734BFA2EB0742D5
:100F5000B2EB074261EB174115EB1C154FEA8131EB
:100F600041EA92414FEA823242EA90424FEA8030AF
:100F70004FEA0C7644F1000448EA03434EEA0B487A
:100F80004FF0000EB2EB080C71EB030724BF624672
:100F900039464EEB0E0E4FF0000B001852414941FE
:100FA0004BEB0B0BB2EB080C71EB03077BF1000B67
:100FB00024BF624639464EEB0E0E4FF0000B001870
:100FC000524149414BEB0B0BB2EB080C71EB0307A1
:100FD0007BF1000B24BF624639464EEB0E0E51EA00
:100FE000020718BF46F0010616EB0E7655F1000217
:100FF00054F1000103D5BDE88901BDE80088BDE8D2
:101000008901BDE80048B619524141EB0101A3F145
:101010000103704780807F7E7D7C7B7A797877764C
:1010200076757473727171706F6E6E6D6C6C6B6AC5
:101030006A69686867666665646463636261616063
:10104000605F5F5E5E5D5D5C5C5B5B5A5A595958E0
:10105000585757565655555554545353525252514A
:10106000515050504F4F4F4E4E4D4D4D4C4C4C4BA0
:101070004B4B4A4A4A4949494848484747474746E7
:101080004646454545444444444343434342424223
:1010900042414141002B9C4630D477002BD01CB5F7
:1010A0004FEA370703B44FF010004FF01001BAF1C8
:1010B000000F06D0BCF1000FDCBF40F0080040F08C
:1010C00008014FF000000FBCBDE810400BF1010B10
:1010D000BBF1010F08BF5FEA170722BF12F101023F
:1010E00011F101014FF0004143F1000300F0004015
:1010F00043EA00007047F9D35708D0E746EA0646AE
:1011000013F1400F4FEA16461FDD13F1200FDFBF2A
:1011100016430A46002120335B42BED0C3F12007AC
:1011200046EA064602FA07F74FEA164646EA070677
:10113000C3F1200722FA03F201FA07F721FA03F1BB
:101140004FF0000342EA0702A7E746EA020646EA32
:1011500006464FEA164646EA0106BCBF46EA064680
:10116000360C4FF000034FF000024FF0000194E7FF
:101170002DE9804C9A46934670B491E8380007C830
:1011800031EA400C48BF34EA430C03D5FFF7E6FDD3
:10119000FFF780FFF0BCBDE8008C2DE9804C9A463B
:1011A000934670B491E8380007C810F0804F08BF2C
:1011B00013F0804F03D100F005F8FFF76BFFF0BC90
:1011C000BDE8008C20F07F4780EA030023F07F4CCD
:1011D00007EB0C03A3F57C5300F00040A3F1FE03E2
:1011E00092F0000F00F0B38095F0000F00F07780D0
:1011F0002DE901494FEA11404FEA144621EA00481F
:1012000000FB06FC24EA064708FB06F607FB08F885
:1012100000FB07F718EB06484CEB164C4FEA124B55
:1012200018EB07484FEA15464CEB174022EA0B4EE5
:101230000BFB06FC25EA06470EFB06F607FB0EFE37
:101240000BFB07F71EEB064E4CEB164C4FF000065F
:101250001EEB074E4CEB174B18EB0B0840F1000050
:1012600018EB0E0B58EB000840F100008F1A4FF0FE
:1012700000013CBFC943661B14BFB5EB040C002141
:101280003CBFC943F61B4FEA17444EEA8E0E27EACD
:1012900004454FEA1C4704FB07622CEA074C05FB98
:1012A00007F70CFB05F604FB0CFC16EB074642EBBC
:1012B000174216EB0C4642EB1C421BEB060658EBA2
:1012C0000202414146EA9E0601D5BDE80189B619F0
:1012D000524141EB0101A3F10103BDE801894FEA4D
:1012E00014454FEA114724EA054621EA074C05FB5D
:1012F00007F406FB07F70CFB06F105FB0CFC11EBF2
:10130000074144EB17444FEA124711EB0C4144EB01
:101310001C4422EA074C05FB07F206FB07F70CFB0F
:1013200006F605FB0CFC16EB074642EB174216EBE4
:101330000C4642EB1C456A1854F1000148BF704747
:10134000B619524141EB0101A3F10103704795F039
:10135000000F37D04FEA11424FEA144721EA024604
:1013600024EA074C02FB07F106FB07F70CFB06F427
:1013700002FB0CFC14EB074441EB17414FEA154705
:1013800014EB0C4441EB1C4125EA074C02FB07F52A
:1013900006FB07F70CFB06F602FB0CFC16EB0746F8
:1013A00045EB174516EB0C4645EB1C42121951F163
:1013B000000148BF7047B619524141EB0101A3F14A
:1013C000010370474FEA14454FEA114724EA0546E6
:1013D00021EA074C05FB07F106FB07F70CFB06F2B9
:1013E0004FF0000605FB0CFC12EB074241EB1741E6
:1013F00012EB0C4251EB1C4148BF7047921841EB75
:101400000101A3F10103704770B5044600688168CB
:10141000C943C90717D1816821F00101816000F03B
:1014200079FE05460AE000BF00F074FE401B02286A
:1014300004D920688068C043C00706D0206880684F
:10144000C043C007F0D0002070BDA06A40F010007B
:10145000A062E06A40F00100E062012070BD00007F
:10146000F8B500260446009600688168C943C9079C
:101470002DD0816841F0010181601648164900684D
:10148000B0FBF1F000E0401E00900028FBD100F01E
:1014900041FE054616E000BF00F03CFE401B02285E
:1014A00010D920688068C043C0070BD0A06A40F004
:1014B0001000A062E06A40F00100E06284F824605D
:1014C0000120F8BD20688068C043C007E4D1002037
:1014D000F8BD00003400002040420F00044B4FF4E0
:1014E000807108B1012200E00022184600F00DBE14
:1014F0000008014010B50C4C0C484FF48071226874
:10150000012A04D0282A04D0502A06D007E000225D
:1015100000E0012200F0F9FD01E0002020602068D9
:10152000401C206010BD0000180000200008014091
:101530007FB5002002904FF480740120CDE9004077
:101540000320064D03906946284600F0E9FC00227E
:101550002146284600F0D9FD7FBD0000000801406B
:10156000FEE7000010B50020FFF7B8FF0021084695
:1015700000F05CF90021022000F058F90021012060
:1015800000F054F90248002101704170817010BDD3
:1015900000000020704700F0FFBB000010B50446BB
:1015A00000F0ACFF0349B0FBF1F16143491EFDD2ED
:1015B00010BD000000093D0072B6FEE7064900209C
:1015C000C8610648016941F004010161016941F007
:1015D0004001016170470000A80100200020024086
:1015E000064A0021D16106490A6942F002020A61F5
:1015F0004861086940F0400008617047A801002078
:1016000000200240044B0022DA61044A136943F0CF
:101610000103136101807047A801002000200240EF
:1016200014480022C168CB06134904D5CA6942F0A8
:101630000202CA611022C3685B0705D5CB6943F07B
:101640000103CB6142F00402C369DB0707D0CB6919
:1016500043F00403CB61C16921F00101C161A2F52E
:101660008071013901D0C2607047C16921F0010168
:10167000C161704700200240A801002070B50546F6
:1016800000F048FD0646114C09E0681C07D025B162
:1016900000F040FD801BA84201D9032070BDE06826
:1016A000C007F2D1E068800601D52020E060E06844
:1016B000C00605D4E069C00702D1E068400703D541
:1016C000FFF7AEFF012070BD002070BD002002407A
:1016D00001F000BE014951F8200070478001002050
:1016E000024A42F8201001F00DBE000080010020E7
:1016F000F8B5194800F080FA3221174800F0DEF9F9
:10170000154800F01BF9154D80054FF0FF0440F619
:10171000FF7609D5104800F013F900233246194628
:10172000009402F0F0FC28810B4800F065FA3221A9
:10173000094800F0C3F9084800F000F9800509D510
:10174000054800F0FDF8002332461946009402F0E7
:10175000DAFCA880F8BD000078000020000000201E
:1017600070B50546114E0C46C00707D00CB10122DA
:1017700000E000221021304600F0C7FCA80707D582
:101780000CB1012200E000220821304600F0BDFC2F
:1017900068070AD506484FF400410CB1012200E069
:1017A0000022BDE8704000F0B0BC70BD000C0140EC
:1017B000000801402DE9FF4100241A4F00940194D4
:1017C0000294224610213846039400F09EFC10201B
:1017D00001250326CDE90005CDE9024669463846D4
:1017E00000F09EFB00220821384600F08EFC082005
:1017F000CDE90005CDE902466946384600F090FB88
:10180000DFF82480EF0300223946404600F07DFCDB
:1018100000970396CDE901546946404600F080FBED
:10182000BDE8FF81000C014000080140034A11544B
:101830000122824090B2FFF793BF00001C000020FD
:10184000F8B50024009490F824202546012A12D0EF
:10185000012280F824204A681F23072A0DD2066837
:10186000776B521E02EB820293409F430B689340BA
:101870001F43776319E00220F8BD06680D2A0AD2DB
:10188000376BD21F02EB820293409F430B68934059
:101890001F43376309E0F76A0D3A02EB8202934077
:1018A0009F430B6893401F43F7620A68072306684B
:1018B0000A2A0AD3F7680A3A02EB420293409F438E
:1018C0008B6893401F43F76008E0376902EB4202E0
:1018D00093409F438B6893401F4337610A68102AE7
:1018E00001D0112A20D1124B02689A4217D1936875
:1018F0001B0219D4936843F400039360096810290C
:1019000012D10C490C4A0968B1FBF2F101EB8101DB
:10191000490000E0491E00910029FBD104E0816AE2
:1019200041F020018162012480F824502046F8BD56
:10193000002401403400002040420F00806A7047BC
:101940000068C06C704700002DE9F0414FF00007BF
:1019500004003D467ED0A06A002628B9E66284F8DD
:101960002460204600F07EF82046FFF74DFDA16A76
:10197000C90600D420B1A06A40F01000A06269E05E
:10198000A16A21F4885141F00201A1626268E16913
:10199000237B0A4347EA43010A43A1684FF4807757
:1019A000B94209D0012907D05FF0000194F814C0B2
:1019B000BCF1010F02D00AE03946F7E7F3B1A36AA0
:1019C00043F02003A362E36A43F00103E362236868
:1019D000D3F804C02CF4694C4CEA010CC3F804C0E1
:1019E00021688B68DFF870C003EA0C0313438B6037
:1019F000A168B9420BD0012909D00CE0DFF85CC026
:101A0000A3690CEB43330B4343F40061DFE7218A06
:101A10000D05A5F580152168CB6A23F470032B43CF
:101A2000CB62216889680E4B1940914208D1E66269
:101A3000A16A21F0020141F00101A162BDE8F0813B
:101A4000A06A20F0020040F01000A062E06A40F0BE
:101A50000100E0620120F1E7FDF7E1FF00E0FFFF98
:101A6000FE0E1FFF00B585B000210091019102918B
:101A7000039100680E49884217D10E48816941F4EC
:101A800000718161816901F400710491816941F003
:101A9000080181618069694600F008000490032014
:101AA00000900190044800F03BFA05B000BD000032
:101AB0000024014000100240000C01402DE9F843D1
:101AC00000270D460446009700F024FB804620685E
:101AD0008168C90508D5A06A40F02000A06284F89A
:101AE00024700120BDE8F8834168C90503D4C06AA9
:101AF00010F4700F2AD0022000F0A2FB3B490968C5
:101B0000B1FBF0F62068036939490B424FEA6101E5
:101B10004FEAA1121FD1C3684FEA611C13EA0C0FF0
:101B200019D103690B4225D1C068104222D114207B
:101B300023E0681C0AD02DB100F0ECFAA0EB0800FD
:101B4000A84203D920680068800725D5206800686E
:101B50008007EED52DE003690B4202D1C168114226
:101B600006D0026923490A4206D1C068084203D15F
:101B7000542002E0292000E0FC204643009816E0B3
:101B8000681C11D02DB100F0C5FAA0EB0800A842E6
:101B90000AD90098B04207D2A06A40F00400A062BF
:101BA00084F8247003209DE70098401C0090B04208
:101BB000E6D321686FF012000860A06A40F400705C
:101BC000A06220688068C0F3424007280CD1207BC7
:101BD00050B9A06A20F48070A062A06AC00403D447
:101BE000A06A40F00100A06200207BE734000020E2
:101BF000244992244992240070B5044690F82400A8
:101C000001280DD0012084F824002046FFF728FC8D
:101C100002004FF0000005D084F82400104670BD8B
:101C2000022070BDA16A40F20123994341F4807102
:101C3000A1621F4D23681F49AB4218D10E6816F4EC
:101C4000702F14D0A66A46F48016A6620E68760538
:101C500005D5A66A26F4005646F48056A662A66A02
:101C6000F6040AD5E66A26F00606E66206E0A66AEB
:101C700026F48016A6625E68E9E7E06284F8240034
:101C80006FF00200186020688368C3F34243072B9B
:101C900005D1A84208D1096811F4702F04D08168D9
:101CA00041F480118160B9E7816841F4A001F9E74E
:101CB000002801400424014010B590F821100022B2
:101CC000022905D00421816380F82020012010BD65
:101CD00001680B6823F00E030B6001680B6823F0AA
:101CE00001030B6090F84030C46B012101FA03F34B
:101CF000636080F8211080F82020104610BD00009D
:101D000010B590F821100024022903D0042181632A
:101D100001243DE001680A6822F00E020A600168B1
:101D20000A6822F001020A601A4A0168914201D150
:101D3000012121E0174A1432914201D110211BE008
:101D4000144A2832914201D1891515E0114A3C32DA
:101D5000914201D189140FE00E4A5032914202D1D2
:101D60004FF4803108E00B4A6432914202D14FF4C3
:101D7000801101E04FF08071064A083A516001215C
:101D800080F82110002180F82010416B01B18847B4
:101D9000204610BD0800024070B5044600F0BAF9B4
:101DA0000546601C02D004480078044400F0B2F9F3
:101DB000401BA042FAD370BD280000202DE9F04757
:101DC000054626480F460126017E01290FD0012134
:101DD000814601762868DFF888804CF2503402286A
:101DE00008D0A2462046FFF749FCA8B131E0022006
:101DF000BDE8F0872046FFF741FC08BB0120FFF754
:101E0000DDFB2046FFF73AFCD8F81010064621F01B
:101E10000401C8F810101CE04FF0FF303860AC68C7
:101E200011E02046FFF7DCFB5046FFF727FCD8F80F
:101E30001010060021F00201C8F8101001D03C601B
:101E400007E004F58064D5E9020100EB8120A0429F
:101E5000E7D8002189F818103046C9E7A80100200A
:101E6000002002400348016941F080010161002027
:101E700070470000002002402DE9F05F07461C4833
:101E800088460024017E15461E46012909D00121FD
:101E9000814601764CF2503A5046FFF7EFFB18B1FD
:101EA00022E00220BDE8F09F012F02D0022F00D0D7
:101EB0000427D346DFF83CA0220128463146FEF72E
:101EC00094F981B208EB4400FFF79CFB5846FFF7FA
:101ED000D5FBDAF8102022F00102CAF8102018B958
:101EE000641CE4B2BC42E7D3002289F81820D9E789
:101EF000A801002000200240064900200A691206BD
:101F000007D5054A4A60054A4A600969090600D5AD
:101F1000012070470020024023016745AB89EFCDC7
:101F20002DE9F84FDFF8B8910024A9F1040B2346FE
:101F30000F2709F1040AABF1040EC9E00125A54001
:101F40002A40AA427DD1674ED1F804C0ACEB060806
:101F5000B44532D014DCBCF1030F3AD009DCBCF13B
:101F6000000F2AD0BCF1010F1CD0BCF1020F31D1FF
:101F70001DE0BCF1110F17D0BCF1120F2AD119E0EE
:101F8000B8F5881F19D006DCB8F5803F15D0B8F534
:101F9000801F1FD111E0B8F5001F0ED0B8F5041F47
:101FA00018D10AE0CB6815E0CB681B1D12E0CB68A6
:101FB00008330FE0CB680C330CE08B682BB1012B9E
:101FC0004FF0080303D0456104E0042302E00561FB
:101FD00000E00023FF2A01D8064601E000F10406D4
:101FE0004FEA840501D9A5F12005D6F8008007FA4B
:101FF00005FC28EA0C0803FA05F548EA0508C6F8C6
:1020000000804D68ED0062D5374DAE6946F001069F
:10201000AE61AD6924F0030605F001050095334D6E
:1020200006EB050CDCF80850A607360F07FA06F891
:1020300025EA0805DFF8B880404503D14FF00008D5
:1020400017E044E0DFF8AC80404502D14FF00108D2
:102050000FE0DFF8A480404502D14FF0020808E00D
:10206000DFF89880404502D14FF0030801E04FF0BF
:10207000040808FA06F848EA0508CCF808804D6814
:10208000D9F80060ED024D4601D5164300E09643B5
:102090002E604D68DAF80060AD02554601D5164352
:1020A00000E096432E604D68DBF80060AD035D46AE
:1020B00001D5164300E096432E604D68DEF80060BF
:1020C000ED03754601D5164300E096432E60641C6F
:1020D0000D682A46E5407FF431AFBDE8F88F000077
:1020E00008040140000011100010024000000140EF
:1020F00000080140000C01400010014000140140A4
:102100008068084000D0012070470AB10161704723
:102110000904FBE7014880687047000028000020A0
:1021200002488168027811448160704728000020CD
:10213000074810B5016841F010010160032000F06C
:102140006DF80F2000F006F800F024F8002010BD14
:102150000020024070B50D4D04464FF47A71287886
:10216000B1FBF0F00A490968B1FBF0F000F0A2FB06
:1021700048B9102C07D200222146501E00F02EF83C
:1021800000206C6070BD012070BD000028000020A0
:1021900034000020094808B5816941F001018161DE
:1021A000816901F001010091C16941F08051C16173
:1021B000C06900F08050009008BD0000001002408F
:1021C000002809DB00F01F02012191404009800036
:1021D00000F1E020C0F8001170470000F0B40E4B91
:1021E0001B680C46C3F30223C3F10705042D00D975
:1021F0000425191D072901D2002300E0DB1E01265A
:1022000006FA05F1491E214099409E40761E16406F
:102210003143F0BC01F063BA0CED00E0064900F078
:10222000070208684FF6FF03184040EA0220034AFD
:1022300010430860704700000CED00E00000FA0554
:1022400010B501460020234C012922D0022939D0A3
:1022500010291DD161682268D20119D51E48C1F329
:102260008342C903805C0AD561681B4AC1F34041BF
:10227000921E515C194AB2FBF1F1484301E0184942
:1022800048436168490203D440000321B0FBF1F0E8
:1022900010BD226AC2F30121012903D1920701D5A1
:1022A000C80310BD022905D1626A920702D549F61A
:1022B000404010BD0329FCD121688903F9D54FF2B4
:1022C000244010BD00F030F96168C1F38131491C30
:1022D0004900DBE700100240C846000800127A00FF
:1022E00000093D002DE9F84305460078354CC0074C
:1022F00054D0E0690026C00008D4E06940F0805066
:10230000E061E069012600F0805000902E480168ED
:10231000C90512D40168804641F480710160FFF75D
:10232000F9FE074605E000BFFFF7F4FEC01B642876
:1023300023D8D8F80000C005F6D5206A10F4407004
:1023400021D0A98801F4407181421CD0206A1F4924
:10235000012220F440700A6000220A602062C00757
:1023600011D0FFF7D7FE074641F2883808E000BFDA
:10237000FFF7D0FEC11B414502D90320BDE8F88319
:10238000206A8007F4D5206A696820F44070084309
:1023900020621EB1E06920F08050E061287880075B
:1023A00005D56068A96820F440400843606028783B
:1023B000C00605D56068E96820F4800008436060C5
:1023C0000020DBE700100240007000404004424261
:1023D0002DE9F0470F46050061D0434E306800F00C
:1023E0000700B84209D2306820F007003843306057
:1023F000306800F00700B84251D128683B4C810793
:1024000012D5400703D5606840F4E060606028782A
:10241000000703D5606840F4605060606068A96898
:1024200020F0F000084360602878C00728D0686872
:10243000012810D02168022810D0890700292EDA3F
:10244000616821F0030101436160FFF763FE80468C
:1024500041F288390DE021688903EFE78901EDE752
:10246000FFF758FEA0EB0801494502D90320BDE85B
:10247000F0876068696800F00C00B0EB810FEFD165
:10248000306800F00700B8420BD9306820F0070030
:1024900038433060306800F00700B84201D00120B6
:1024A000E5E72878400705D56068E96820F4E06032
:1024B000084360602878000706D56068296920F421
:1024C000605040EAC100606000F03EF86168084A70
:1024D000C1F30311515CC840064908600648006812
:1024E000FFF738FE0020C2E7002002400010024043
:1024F000D8460008340000202C0000200148006865
:10250000704700003400002004480549006849680D
:10251000044AC1F30221515CC840704734000020D6
:1025200000100240E8460008044805490068496870
:10253000044AC1F3C221515CC840704734000020F6
:1025400000100240E84600080E4A51680E4801F0AB
:102550000C03042B11D0082B0FD10C48C1F383437B
:10256000C903C05C0AD55168084AC1F34041921EB4
:10257000515C054A5043B0FBF1F0704704494843B1
:10258000704700000010024000127A00B6460008B2
:1025900000093D002DE9F84F040070D02078C04DAF
:1025A000C00749D06868C0F38100012807D0686877
:1025B000C0F38100022809D16868C00306D52868E5
:1025C000800339D560680028E7D035E06068B0F551
:1025D000803F0BD010B1B0F5A02F11D0286820F4A7
:1025E00080302860286820F4802002E0286840F4C9
:1025F00080302860606890B1FFF78CFD06460AE0E5
:10260000286840F480202860F0E700BFFFF782FDD3
:10261000801B642873D828688003F7D50CE0FFF787
:1026200079FD064605E000BFFFF774FD801B6428B6
:10263000F0D828688003F7D420789A4E80074FF0AE
:1026400001094FF0000839D5686810F00C0F07D069
:102650006868C0F38100022809D16868C00306D405
:102660002868800714D52069012808D110E0206966
:10267000B0B1C6F80090FFF74DFD074605E00AE14E
:10268000FFF748FDC01B0228C4D828688007F7D58B
:102690002868616920F0F80040EAC10028600DE078
:1026A000C6F80080FFF736FD074604E0FFF732FD6D
:1026B000C01B022823D828688007F7D42078000799
:1026C0002CD57948A169D9B1C0F80090FFF722FD57
:1026D000074604E0FFF71EFDC01B02280FD8686AFA
:1026E0008007F7D571484FF4FA510068B0FBF1F05C
:1026F000009000BF0098411E0091FAD20EE080E0E9
:10270000C0F80080FFF706FD074604E0FFF702FD72
:10271000C01B022875D8686A8007F7D42078400764
:1027200060D5E8690027C00008D4E86940F080500F
:10273000E861E869012700F0805000905C4801687A
:10274000C90513D40168834641F480710160FFF725
:10275000E1FC824606E000BFFFF7DCFCA0EB0A00CC
:1027600064284ED8DBF80000C005F5D5E0680128E4
:102770000AD008B1052813D0286A20F00100286289
:10278000286A20F0040002E0286A40F00100286274
:10279000E06841F2883B98B1FFF7BCFC82460BE051
:1027A000286A40F004002862EEE700BFFFF7B2FCA1
:1027B000A0EB0A0159455AD8286A8007F6D50CE0E3
:1027C000FFF7A8FC824605E0FFF7A4FCA0EB0A0196
:1027D00059454CD8286A8007F6D41FB1E86920F023
:1027E0008050E861E06988B36968C1F3810102291A
:1027F00044D00228C6F8608004D0FFF78BFC044662
:1028000038E034E0FFF786FC074604E0FFF782FC7F
:10281000C01B02282BD828688001F7D4206AB0F5A5
:10282000803F05D16868A16820F4003008436860E3
:10283000D4E908010843696821F474110843686009
:10284000C6F86090FFF766FC044606E025E000BF8E
:10285000FFF760FC001B022809D828688001F7D523
:102860001BE000BFFFF756FC001B022802D9032023
:10287000BDE8F88F28688001F4D40EE00128F7D075
:102880006868226A00F48031914204D1616A00F4E0
:102890007010884201D00120EAE70020E8E700003C
:1028A00000100240000042428004424234000020F6
:1028B0000070004010B5401EB0F1807F01D30120B0
:1028C00010BD4FF0E02460610F21601700F007FF9A
:1028D0000020A06107202061002010BD70477047D4
:1028E00070B590F83C20012A26D0012480F83C40A5
:1028F000022280F83D2003685A689D6822F0700625
:102900000A6832435A600D4B02689A4208D0B2F10D
:10291000804F05D00A4B9A4202D00A4B9A4204D10A
:10292000496825F080031943916080F83D400021FB
:1029300080F83C10084670BD022070BD002C01409C
:10294000000400400008004010B5040003D094F8D3
:102950003D0010B107E0012010BD002084F83C00CC
:10296000204600F01FF8022084F83D00211D206859
:1029700000F03CFD012084F8460084F83E0084F815
:102980003F0084F8400084F8410084F8420084F855
:10299000430084F8440084F8450084F83D0000209A
:1029A00010BD000008B500680B49884212D10B48E1
:1029B000C16941F00401C161C069002200F0040056
:1029C000009011461E20FFF709FCBDE808401E20BC
:1029D000FFF7F6BB08BD00000008004000100240F1
:1029E00070B5044690F83C000025012817D0012658
:1029F00084F83C60022084F83D002068826822F060
:102A0000770222F47F4282600868502838D00DDCBB
:102A100020284FD005DC90B3102811D14AE00220C5
:102A200070BD302846D040280AD13BE060282FD026
:102A300070280DD0B0F5805F03D0B0F5005F12D0E4
:102A4000012584F83D60002084F83C00284670BDD4
:102A5000CB68D1E90121206800F0FEFC2068816884
:102A600041F0770109E0CB68D1E90121206800F04D
:102A7000F3FC2068816841F480418160E1E719E05E
:102A8000CA684968206800F0F9FC5021206806E017
:102A9000CA684968206800F002FD6021206800F0E3
:102AA000E5FCCEE7CA684968206800F0E7FC4021F1
:102AB0002068F4E7226801461046F0E7704770B5D9
:102AC0000446006801694FF00005C943890715D421
:102AD000C168C943890711D4E91E0161012020772B
:102AE000206880698007204602D0FFF7E7FF04E0F6
:102AF00000F098F8204600F096F8257720680169E4
:102B0000C943490717D4C168C943490713D46FF0B3
:102B100004010161022020772068806910F4407F61
:102B2000204602D0FFF7CAFF04E000F07BF8204601
:102B300000F079F8257720680169C943090716D4A0
:102B4000C168C943090712D46FF00801016104206C
:102B500020772068C0698007204602D0FFF7AEFFCB
:102B600004E000F05FF8204600F05DF8257720686B
:102B70000169C943C90617D4C168C943C90613D43A
:102B80006FF010010161082020772068C06910F4FF
:102B9000407F204602D0FFF791FF04E000F042F8AA
:102BA000204600F040F8257720680169C943C9072D
:102BB00008D1C168C943C90704D1891E01612046F3
:102BC00000F032F820680169C943090609D4C168D8
:102BD000C943090605D46FF0800101612046FFF763
:102BE0007DFE20680169C943490609D4C168C9430B
:102BF000490605D46FF040010161204600F015F848
:102C000020680169C94389060BD4C168C943890694
:102C100007D46FF0200101612046BDE87040FFF746
:102C20005EBE70BD70477047704770477047704711
:102C3000F8B5016804460868CA684B6910F00F0FC0
:102C40004FF0000559D003F0010602F490773743A6
:102C500065D0C10705D0D10503D5616C41F00101F4
:102C60006164410705D5D90703D0616C41F00201C9
:102C70006164810705D5D90703D0616C41F0040177
:102C80006164010707D502F02001314303D0616C74
:102C900041F008016164616C00293AD0800604D5D6
:102CA000900602D5204600F03BFC20684069616C2C
:102CB000C0F38010090700D460B3204600F009FC7F
:102CC00020684069400621D52068143050E8001F74
:102CD00021F0400140E80012002AF5D1E06BA8B1D4
:102CE0006D494163E06BFFF70BF8002811D0E06BF2
:102CF000416B01B0BDE8F040084783060FD593064D
:102D00000DD52046BDE8F84000F00ABC2046FFF78C
:102D10008EFFF8BD2046FFF78AFF6564F8BD266B7D
:102D20002023012E7CD1C6067AD5D60678D5086830
:102D30004868009048694FF00206400640D5E16BB4
:102D4000086840680004000CE8D0A28D8242E5D9F2
:102D5000E085886920282DD020680C3050E8001FBD
:102D600021F4807140E80012002AF5D12068143067
:102D700050E8001F21F0010140E80012002AF5D1BF
:102D80002068143050E8001F21F0400140E8001294
:102D9000002AF5D184F84230256320680C3050E8D1
:102DA000001F21F0100140E80012002AF5D1E06B6D
:102DB000FEF782FF6663A08DE18D401A81B22AE0A2
:102DC000A08DE18D401A81B2E08D0028A6D00029A7
:102DD000A4D022680C3252E8000F20F4907042E830
:102DE0000007002FF5D12068143050E8002F22F0A2
:102DF000010240E80027002FF5D184F84230256316
:102E000020680C3050E8002F22F0100240E8002328
:102E1000002BF5D166632046FFF708FFF8BDFFE7FA
:102E200005062BD5150629D594F841002128F5D1A2
:102E3000A068B0F5805F01D12069B0B1206A411C63
:102E40002162216800784860E08C401E0004000C7C
:102E5000E084E3D12068C16821F08001C16020686E
:102E6000C16841F04001C160D8E7206A0088C0F322
:102E700008004860206A801C2062E5E74006CDD546
:102E80005006CBD5CA68204622F04002CA6084F8BA
:102E9000413000F0A4F8C1E7C334000870B5040065
:102EA00004D094F84100002510B106E0012070BD67
:102EB00084F84050204600F023F8242084F8410094
:102EC0002068C16821F40051C160204600F08AFBEF
:102ED0002068016921F4904101612068416921F075
:102EE0002A0141612068C16841F40051C1606564F4
:102EF000202084F8410084F842006563002070BD02
:102F000070B586B000240094019402940394036881
:102F10002E482D4E022103220515B34226D1836986
:102F200043F480438361836903F48043049383699A
:102F300043F0040383618069254E00F0040004908F
:102F40000802CDE90001039269463046FEF7E8FF2A
:102F5000CDE90054694630460294FEF7E1FF0022B5
:102F600011462520FFF73AF9252028E0194EB342F3
:102F700027D1C36943F48023C361C36903F4802369
:102F80000493836943F0080383618069CDE90051AC
:102F900000F00800CDE903200F4D69462846FEF7F2
:102FA000BFFFE814CDE90004694628460294FEF705
:102FB000B7FF002211462720FFF710F92720FFF75F
:102FC000FFF806B070BD000000380140001002405C
:102FD0000008014000480040000C01407047704765
:102FE000FEE700007FB500244FF480500125CDE9B5
:102FF00000040E4ECDE9025469463046FEF790FFBC
:1030000068038DE8310069463046FEF789FFA80362
:103010008DE8310069463046FEF782FFE8038DE80F
:10302000310069463046FEF77BFF7FBD000C014052
:103030002DE9F0470126314D314C37034FF400584C
:103040004FF480494FF4004A08B12E7002E028780E
:10305000012813D139462046FFF752F8A8B141465E
:103060002046FFF74DF880B149462046FFF748F863
:1030700058B151462046FFF743F830B13946204653
:10308000FFF73EF8012823D035E00A20FEF783FA47
:103090000020287039462046FFF732F878B14146C3
:1030A0002046FFF72DF868B149462046FFF728F87B
:1030B00050B151462046FFF723F838B11BE00120FC
:1030C000BDE8F0870220FBE70320F9E70420F7E7DB
:1030D00041462046FFF714F801280CD14946204606
:1030E000FFF70EF8012806D151462046FFF708F8F1
:1030F000012800D12E700020E2E70000240000200B
:10310000000C0140FEB500251748009501951549B2
:1031100002950160891581600573012404750226FA
:1031200006614FF460214560C0E90641FEF70CFCE2
:1031300008B1FEF741FA08208DE8310069460A48D7
:10314000FEF77EFB08B1FEF737FA0920CDE900064D
:1031500069460548FEF774FB002801D0FEF72CFAFB
:10316000FEBD000000240140780000200D4808B595
:10317000816941F020018161816901F020010091A4
:10318000816941F008018161816901F008010091C4
:10319000816941F004018161806900F004000090C0
:1031A00008BD00000010024010B586B0002417488A
:1031B00000940194029403940494134905940160CB
:1031C0004721C0E9011440F2E731C0E903148461EA
:1031D000FFF7BAFB08B1FEF7EFF94FF4805000900B
:1031E00069460A48FFF7FCFB08B1FEF7E5F90494CD
:1031F00004A906480594FFF773FB002801D0FEF7E9
:10320000DBF906B010BD000000080040A800002057
:103210000C4810B50A4901604FF416514160002175
:1032200081600C22C160C0E904128161C161FFF7B5
:1032300035FE002803D0BDE81040FEF7BDB910BD33
:1032400000380140F00000200C4810B50A49016028
:103250004FF416514160002181600C22C160C0E929
:1032600004128161C161FFF719FE002803D0BDE897
:103270001040FEF7A1B910BD004800403801002001
:10328000114808B5816941F020018161816901F02F
:1032900020010091816941F010018161816901F093
:1032A00010010091816941F008018161816901F09B
:1032B00008010091816941F004018161806900F099
:1032C0000400009008BD000000100240FEE7FEE789
:1032D000704700000948006808B101207047074A9C
:1032E0000020074B121D00BF52F8201043F8201099
:1032F000401CC0B20A28F7D30020704700FC000829
:103300008001002070B586B0FEF7F6FD0020019028
:103310000090114C0121CDE90341694601A8FEF757
:103320004DFD0022134621460220FEF7A5FD0A4E60
:1033300000240A4D16F1040606EB840155F82420FA
:1033400000230220FEF798FD641CE4B20A2CF3D39C
:10335000FEF788FD06B070BD00FC0008800100206B
:103360007047FEF7DDBE30B593B028216846FDF703
:1033700063F814210AA8FDF75FF8002501200F95D6
:1033800010951195010412958DE8230004904FF4D7
:10339000E010CDE90810022407946846FFF7FAF818
:1033A00008B172B6FEE70AA90F2081E831004FF498
:1033B0008060CDE90D0502210AA8FFF709F808B1E0
:1033C00072B6FEE74FF4004011900F940FA8FEF77D
:1033D00089FF002801D072B6FEE713B030BD7047F8
:1033E0000148FFF76CBB0000A8000020F0B50268A0
:1033F000164B174C174D4FF08047984205D0B842F6
:1034000003D0A04201D0A84203D122F070064A683E
:103410003243984205D0B84203D0A04201D0A8421E
:1034200003D122F44074CA6822434C6922F080021E
:10343000224302608A68C2620A688262984201D1AD
:103440000969016301214161F0BD0000002C0140C8
:10345000000400400008004010B5846842EA0322DE
:1034600024F47F440A432243826010BD826822F024
:1034700070020A4342F007018160704710B5036A89
:10348000046A24F001040462846924F0F00444EA2C
:10349000021423F00A020A438461026210BD10B5CF
:1034A000036A046A24F010040462846923F0A00310
:1034B00024F4704444EA023243EA01118261016259
:1034C00010BD10B5406A0021C185C184FFF7AFFB74
:1034D00010BD01680C3151E8002F22F4907241E8D0
:1034E0000023002BF5D10168143151E8002F22F0A0
:1034F000010241E80023002BF5D1016B012909D11C
:1035000001680C3151E8002F22F0100241E800233D
:10351000002BF5D1202180F8421000210163704773
:1035200008B590F84210222901D0022008BD826817
:103530004FF480539A4201D1016921B1816A9A42C4
:103540001BD04AB10AE00268816A5268C2F30802DD
:103550000A80816A891C08E0026972B102685268B7
:1035600002F07F020A70816A491C8162C18D491E86
:103570000904090CC18503D01BE002685268F1E719
:103580000168CA6822F02002CA600168CA6822F491
:103590008072CA6001684A6922F001024A612021F2
:1035A00080F8421000214163026B012A03D0FFF72B
:1035B00015FD002008BD016301680C3151E8002FA2
:1035C00022F0100241E80023002BF5D101680A68BF
:1035D000D20602D50A6849680091818DFFF726FB63
:1035E000E7E7000070B5044600680169E26821F46D
:1035F0004051114301612169A06808436169084392
:103600002168CA6841F20C639A430243CA60206889
:103610004169A26921F44071114341611E4920684A
:10362000884202D1FEF780FF01E0FEF76DFF00EB5C
:10363000C00101EB0012606864218000B2FBF0F36E
:10364000B3FBF1F36FF018067343B2FBF0F5B2FB76
:10365000F0F605EB8305322303EB0515B5FBF1F519
:10366000B6FBF1F605F0F00505EB0615B2FBF0F63A
:10367000B2FBF0F0B0FBF1F06FF01802504306EB34
:10368000800003EB0010B0FBF1F0216800F00F00A8
:103690002844886070BD0000003801400148FFF7F1
:1036A000C7BA0000F00000200148FFF7C1BA0000CF
:1036B00038010020FEE7490050EAC12018BF04206D
:1036C0004A0D18BF40F0010040F2FF72B2EB515FAB
:1036D00008BF40F00200012808BF05207047090715
:1036E000090E002804DB00F1E02080F80014704788
:1036F00000F00F0000F1E02080F8141D7047303812
:103700000A2801D20120704700207047704700004E
:103710002DE9F041002425464FF40066124F04E0E5
:10372000641CE4B20120FDF739FF31463846FEF74C
:10373000E7FC10B1C82CF3D30FE0C82C0DD2002445
:1037400004E0641CE4B20120FDF728FF314638464E
:10375000FEF7D6FC28B1F02C00D301252846BDE8A1
:10376000F081F02CEDD3F8E70008014070B5012599
:1037700000F07EF8FFF7CCFFCC2000F093F8442057
:1037800000F090F800F074F8FFF7C2FFCC2000F0D2
:1037900089F8BE2000F086F800F03CF8044600F0FE
:1037A00039F8072804D9C043E143C0B2CCB20025A0
:1037B00004EB00200B4C00B24DB100F050FE002293
:1037C000234600F077FE00F01BFE00B270BD401CE7
:1037D00000F045FE0022234600F06CFE00F010FED3
:1037E0004042F2E70000E43F1FB54FF40060009054
:1037F00011200190012002900320039069460448A3
:10380000FEF78EFB00F034F8FFF782FF04B010BD26
:10381000000801402DE9F0410026DFF850803546D0
:103820004FF400670024224639464046FEF76DFCFF
:103830000220FDF7B3FE012239464046FEF765FC43
:103840000C20FDF7ABFE39464046FEF759FC00B1AF
:1038500001243220FDF7A2FEAC4034436D1CEDB2D2
:10386000E6B2082DDED33046BDE8F0810008014005
:1038700070B50B4D4FF40064002221462846FEF738
:1038800044FC40F2EE20FDF789FE01222146284645
:10389000FEF73BFCBDE870400F20FDF77FBE000047
:1038A000000801402DE9F0410124144F0546E602CD
:1038B000E8074FF00002314638460BD0FEF725FCF2
:1038C0000220FDF76BFE012231463846FEF71DFC53
:1038D0003C200AE0FEF719FC3C20FDF75FFE0122C8
:1038E00031463846FEF711FC0220FDF757FE641CF6
:1038F0006D08E4B2082CDBD9BDE8F0810008014076
:103900002DE9FF4120270225002601240097039579
:10391000DFF89880CDE9014669464046FEF700FB96
:1039200000970395CDE9014669464046FEF7F8FA4F
:10393000102003958DE8510069464046FEF7F0FAE5
:10394000082003958DE8510069464046FEF7E8FAE5
:10395000042003958DE8510069464046FEF7E0FAE1
:10396000CDE90054CDE9026569464046FEF7D8FA34
:1039700003950094CDE9014669464046FEF7D0FA2A
:10398000012000F0DBF8022000F0D8F8282000F039
:10399000D5F80C2000F0D2F8062000F0CFF8012076
:1039A00000F0CCF800F03AF8BDE8FF8100080140D3
:1039B0002DE9F041002415460646012918D80F2E9E
:1039C00016D8C6F1100781B124E0A74204EB060027
:1039D00001DD803000E0B030C0B200F0AFF82878F0
:1039E00000F0E4F8641CE4B26D1C28780028ECD1E7
:1039F000BDE8F081A74204EB060001DDC03000E025
:103A00007030C0B200F09AF8287800F0CFF8641C4B
:103A1000E4B26D1C28780028ECD1E9E710B540200D
:103A200000F08CF8002000F0C1F8412000F086F88A
:103A3000042000F0BBF8422000F080F80E2000F0D7
:103A4000B5F8432000F07AF80E2000F0AFF84420DB
:103A500000F074F80E2000F0A9F8452000F06EF890
:103A60001F2000F0A3F8462000F068F8042000F0C2
:103A70009DF8472000F062F8002000F097F84820F9
:103A800000F05CF8032000F091F8492000F056F8AF
:103A9000032000F08BF84A2000F050F8002000F0DE
:103AA00085F84B2000F04AF8002000F07FF84C2009
:103AB00000F044F8002000F079F84D2000F03EF8C6
:103AC000002000F073F84E2000F038F8002000F0DD
:103AD0006DF84F2000F032F8BDE81040002000F0F3
:103AE00065B8000070B50446134DC00601D501222B
:103AF00000E0002208212846FEF707FBA00601D5BA
:103B0000012200E0002204212846FEF7FEFA6006AA
:103B100001D5012200E0002202212846FEF7F5FA35
:103B2000200601D5012200E000222846BDE87040B1
:103B30000121FEF7EABA00000008014070B51A4DF5
:103B40000446002220212846FEF7DFFA0022102139
:103B50002846FEF7DAFA2046FFF7C4FF0A20FDF7F1
:103B60001DFD012210212846FEF7CFFA0120FDF7A6
:103B700012FD002210212846FEF7C7FA2007000E8A
:103B8000FFF7B0FF0A20FDF709FD012210212846AA
:103B9000FEF7BBFA0120FDF7FEFC2846BDE87040A9
:103BA00000221021FEF7B1BA0008014070B51A4D8D
:103BB0000446012220212846FEF7A7FA0022102100
:103BC0002846FEF7A2FA2046FFF78CFF0A20FDF7F1
:103BD000E5FC012210212846FEF797FA0120FDF7A7
:103BE000DAFC002210212846FEF78FFA2007000E8B
:103BF000FFF778FF0A20FDF7D1FC012210212846AB
:103C0000FEF783FA0120FDF7C6FC2846BDE87040A8
:103C100000221021FEF779BA000801400EB54FF0DE
:103C200000090120CA46FE25C8464F460290FEF70D
:103C30007FFAF948816941F0010181618069F749A2
:103C400000F001000090486820F0E06040F0007053
:103C50004860FFF788FBFFF789FAFFF7A5FAFFF73F
:103C6000D7FAFFF74FFAFFF7EFFAFFF709FBFFF775
:103C700047FEFFF7B9FD28B10021E9A20846FFF78A
:103C800097FEFEE7FFF7AEF9FDF752FCFDF792FD58
:103C9000FDF71EFDE44C90B1E1890020FDF720FD09
:103CA000A1890120FDF71CFD218A0220FDF718FDE6
:103CB00003206169FDF714FD4FF0010B9AE000202D
:103CC000FDF708FDE0810120FDF704FDA081022041
:103CD000FDF700FD20820320FDF7FCFC6061EBE7AF
:103CE0000120FFF7A5F90026022806D0032806D0F8
:103CF000012807D0042812D019E0012617E04FF060
:103D0000FF3614E07F1CFFB2022F02D94FF00008EB
:103D1000FE250120FFF78CF90028FAD107E04FF0CB
:103D20000008FE250120FFF783F90028FAD157B1DA
:103D3000012F23D0208A304480B22082FF2841D92D
:103D4000FF20208241E0E089304480B2E081632896
:103D500002D96320E08102E008B9A4F80EB0002186
:103D6000B2A20846FFF724FEE289B5A1B948FCF7E4
:103D70004FFA002E38D0E189002033E0A08930448A
:103D800080B2A081B0F57A7F03D340F2E730A08102
:103D900002E008B9A4F80CB00021AFA20846FFF772
:103DA00007FEA08900F072FB0022B04B00F0D0F9B2
:103DB00002460B46AEA1A748FCF72AFAA6B1A18994
:103DC00001200FE008B9A4F810B00021ADA2084608
:103DD000FFF7EEFD228AB0A19E48FCF719FA1EB14A
:103DE000218A0220FDF77CFC9A4A01210020FFF77E
:103DF000DFFDFBE00020FFF71BF9064660690128A4
:103E000001D1012E02D0042E0DD016E04FF0010892
:103E10000027FDF7A7FBBA46D1460120FFF708F9B6
:103E20000028FAD15CE7FDF79DFB6069F0B3002143
:103E300003206161FDF754FCFE256D1CEDB2282DB9
:103E40007ED9002559EA0A0003D0029878B30020F1
:103E50000290FDF74DFC7F487E4934303431406894
:103E60000860019008468068486000902089C0F191
:103E7000FF0000F0F4FA00228C4B00F069F90022F8
:103E80008B4B00F017FB00F0BBFA7249343163280A
:103E9000886001DD632088606E49DDE900203431EF
:103EA000801A00D54042052809DC01E017E018E03F
:103EB0008968501A00D54042052800DCE180FFF7F0
:103EC00055FC6081E2887BA16248FCF7A1F960693A
:103ED00048B1B9F1000F0FD0029840B10CE00121B8
:103EE000A6E70120B4E75B485321017004E059497B
:103EF00020208871C8710872207810B155484B2174
:103F00008172A07810B153494B200873607810B1CA
:103F100050494B20887300214E4A0846FFF748FD60
:103F2000608900F0B3FA0022504B00F011F9A2882A
:103F300000920B46024664A14648FCF769F900E08E
:103F400013E0606960B1BAF1000F09D0029838B986
:103F500040492020C870087148718871C871087282
:103F60003C4A01210020FFF723FD606930B1A088A1
:103F7000218A884222D284F800B021E04FF0000A62
:103F8000D146012E04D0032E09D0022E0FD02DE0F1
:103F9000207810B10020207005E00120FBE7607858
:103FA00018B100206070FE2520E00120FAE7A0781B
:103FB00010B10020A070F6E70120FBE70020207080
:103FC0006089A189884203D984F802B0012001E008
:103FD0000020A0708246E088E189884203D284F8FC
:103FE00001B0012001E0002060708146207808B116
:103FF000012100E000210020FDF718FCA07808B1A5
:10400000012100E000210120FDF710FC607808B1DB
:10401000012164E062E00000001002400000014065
:10402000455252200000000000000020202053656F
:10403000742048756D69646974792020000000005F
:1040400020202020202025303264252520202020FB
:104050002020200038000020205365742054656D16
:1040600070657274757265200000000000002440C5
:104070002020202020202530342E316620202020B2
:10408000202000002020536574204C696768746903
:104090006E672020000000002020202020202530F6
:1040A00033642020202020202000000000006940F0
:1040B000000059405A442053443A253032642525A3
:1040C000204720472047200057443A2530342E31DE
:1040D00066014320475A3A2530336400002102200C
:1040E000FDF7A4FB59EA0A0002D0FDF703FA02E04B
:1040F0000020FDF7F3F90A20FDF74DFAB8F1000FA3
:104100003FF4DCADECE510B59142029C02D14FF0DA
:10411000FF3010BD401AE41A6043511A90FBF1F0D1
:10412000184410BD10B500290AD00878002807D01F
:1041300005487844FCF760FD002801D0002010BD40
:104140000248784410BD0000860600007E0600008C
:104150002DE9C04130B4DFF8A0C23CEA111418BF09
:104160003CEA131400F0EC8081EA03051CEA111408
:1041700044EAD57418BF1CEA131500F0C780A4EBFD
:1041800005044FF0004545EAC12145EAC32341EA51
:10419000505143EA525304F17F74994204F50034BC
:1041A0004FEAC0204FEAC22208BF904200F09C8034
:1041B0004FEA13650FF24016765D4FEA134506FB92
:1041C00005F7C7F1807706FB07F74FEAD737A7FB5C
:1041D00003687642C8F58038A7FB06CE38BFA8F141
:1041E000010807FB08E64FF0000EA6FB028CE6FB79
:1041F00003CEDCF1000CCEF1004E38BFAEF1010E63
:10420000A6FB0C584FF000074FF00005E6FB0E87A9
:10421000A1FB08C6A0FB07CE16EB0E0645F1000574
:10422000E1FB076515F1E04E7EBFA4F580345FEA3F
:1042300046066D4116F1800745F100054FEA172744
:104240004FEA066647EA0567A6F1DE46B6F1805FEB
:104250004FEA15251FD9384624F0010C05EBC4712F
:10426000BCF1FE6F01EB0C1102D8F0BCBDE800817F
:1042700024425CBF01F5801E9EEAC47F02D4F0BCDC
:10428000BDE80081244238D4F0BCA1F1C041BDE8B2
:10429000004100F007BA4FEAD22242EA43524FEA05
:1042A000D323A7FB02864FEAD02040EA415007FB08
:1042B00003661EEA0E0F4FEAD12105FB026658BFC6
:1042C000A6EB0056B6EB00564FEA520E4EEAC37EFE
:1042D00018EB0E0E56EB530EBDD518EB02085E41DF
:1042E0007F1C55F10005B6E74FF480154FF000072D
:1042F0004FF000064FF00008ADE7F0BC4FF00000B3
:1043000001F1C04101F00041BDE8008111EA0C1F3C
:104310000CEA131500D00CE013EA0C1F00F0258006
:104320004FF00000F0BC81EA030101F00041BDE85C
:104330000081F0BCBDE8004181EA030100F0B2B9A0
:10434000F0BCBDE8004170B500F05EF9097EFC3EAE
:1043500000F007B881EA03014FF0000001F00041CE
:10436000704781EA030100F09DB9F0BCBDE800414F
:104370004FF0000021497047FFFDFBF9F7F5F4F21B
:10438000F0EEEDEBE9E8E6E4E3E1E0DEDDDBDAD8F0
:10439000D7D5D4D3D1D0CFCDCCCBCAC8C7C6C5C44E
:1043A000C2C1C0BFBEBDBCBBBAB9B8B7B6B5B4B365
:1043B000B2B1B0AFAEADACABAAA9A8A8A7A6A5A450
:1043C000A3A3A2A1A09F9F9E9D9C9C9B9A99999814
:1043D0009797969595949393929191908F8F8E8EB7
:1043E0008D8C8C8B8B8A8989888887878685858444
:1043F00084838382828181800000FF070000F87F30
:104400004FEA41034FEA5353A3F58063D3F11E03F0
:10441000C8BFD3F1210C0CDD4FF0004242EAC122AB
:1044200042EA505232FA03FC8CEAE17CACEBE170D8
:104430007047102BC4BF0020704703F5787CBCF197
:10444000FF3F04D06FF0004282EA2100704770B550
:1044500000F0DAF84992248000207047F2E710F06B
:10446000004248BF4042B0FA80F310FA03F10AD08C
:10447000C3F11D0303F580634FEA415002EB035281
:1044800002EBD12170474FF000007047B0FA80F383
:1044900010FA03F10AD0C3F11D0303F580634FEA5C
:1044A00041504FEA035202EBD12170474FF0000018
:1044B00070470000DFF848C170B51CEA111E1EBF2E
:1044C0001CEA13159EEA0C0F95EA0C0F00F06F80A2
:1044D00081EA030423EA4C134EEAD47E21EA4C110C
:1044E00041F4801143F48013AE44A1FB024CA0FBC5
:1044F0000365AEF17F7E361955EB0C05A1FB034C2D
:104500004CF10003A0FB021C16EB0C06654153F1B5
:104510000003094218BF46F0010613F4007F0BD1D7
:104520004FEA03314FEA0530340341EA155140EABE
:1045300016506FF003020AE04FEAC3214FEAC5208C
:10454000F40241EA555140EA56506FF0020202EB84
:104550002E4201EB025585EACE710AD05FEA440C87
:1045600018BF24F0004450F1000041F1000120EA9E
:10457000D47040F2FE7C624500D270BDA84214BFE8
:104580004FF080444FF04044002E08BF0024BEF19D
:10459000806FA8BFA1F1C041BDE8704080F2828069
:1045A0004FF0000001F1C04101F0004170479EEA68
:1045B0000C0F0CEA131518BF95EA0C0F06D04FF03C
:1045C000000081EA030E0EF0004170BD00F01CF8FF
:1045D0008900013E00F007B800F009B84FEA430C2B
:1045E0005FEA5C5C08D081EA030100F05BB84FEA47
:1045F000410C5FEA5C5CF6D14FF000000149704766
:104600000000FF070000F87F0EF1020E2EF0030EEF
:104610005EF8046B364205D4012A43EB030515F519
:10462000001F12D8012841EB010C1CF5001F0CD80B
:104630000ED14FEAD17C15F5001F0CEB4C0C0CF1A0
:10464000020C08BF4CEBD37C04E04FF0080C01E0F7
:104650004FEAD37C0CEB4C0526FA05F606F007066C
:10466000B6F1040C06D20EEB860CBDE870404CF09F
:10467000010C6047DFE80CF0090B02024FF000412B
:104680004FF00000A1F5002170BD19461046012829
:1046900051EB010418BFD4F5001484BF002001F0D1
:1046A000004170BD0808A0F500114FEA31017047C4
:1046B000FCF71FB8010202030405060708090A0BEC
:1046C0000C0D0E0F10100102020304050607080965
:1046D0000A0B0C0D0E0F101000000000000000006F
:1046E0000102030406070809000000000102030498
:1046F00004000008000000000000000200010000AB
:104700001000000002400000000000A000000000B7
:1047100005400000000000C8000000000C40000040
:104720000000409C00000000194000000020BCBEBA
:104730000000000034400000BFC91B8E00000004D0
:10474000B5400000504BCFD06607E2CF010000001B
:104750006C4100003E8251AADFEEA7340100000048
:10476000D9420000DCB5A0E23A301F97FFFFFFFFFF
:10477000B4450000FD25A0C8E9A3C14FFFFFFFFF1E
:10478000FF3F00000000008000000000FF3F00002D
:104790000000008000000000D44700080000002056
:1047A00038000000280100080C48000838000020EC
:1047B000F0070000440100081C0000004300000056
:1047C000F8FFFFFF0C0000000E0000000F000000CB
:1047D0002E000000000000000000000000000000AB
:1047E00011014600820000000000000000000000EF
:1047F00000000000000000000100000001000000B7
:0C48000010000000000000000024F40084
:04000005080000ED02
:00000001FF
